{
  "_format": "hh-sol-artifact-1",
  "contractName": "DEX",
  "sourceName": "contracts/DEX.sol",
  "abi": [
    {
      "inputs": [
        {
          "internalType": "contract IERC20",
          "name": "_token",
          "type": "address"
        },
        {
          "internalType": "uint256",
          "name": "_price",
          "type": "uint256"
        }
      ],
      "stateMutability": "nonpayable",
      "type": "constructor"
    },
    {
      "inputs": [],
      "name": "associatedToken",
      "outputs": [
        {
          "internalType": "contract IERC20",
          "name": "",
          "type": "address"
        }
      ],
      "stateMutability": "view",
      "type": "function"
    },
    {
      "inputs": [
        {
          "internalType": "uint256",
          "name": "numTokens",
          "type": "uint256"
        }
      ],
      "name": "buy",
      "outputs": [],
      "stateMutability": "payable",
      "type": "function"
    },
    {
      "inputs": [
        {
          "internalType": "uint256",
          "name": "numTokens",
          "type": "uint256"
        }
      ],
      "name": "getPrice",
      "outputs": [
        {
          "internalType": "uint256",
          "name": "",
          "type": "uint256"
        }
      ],
      "stateMutability": "view",
      "type": "function"
    },
    {
      "inputs": [],
      "name": "getTokenBalance",
      "outputs": [
        {
          "internalType": "uint256",
          "name": "",
          "type": "uint256"
        }
      ],
      "stateMutability": "view",
      "type": "function"
    },
    {
      "inputs": [],
      "name": "sell",
      "outputs": [],
      "stateMutability": "nonpayable",
      "type": "function"
    },
    {
      "inputs": [],
      "name": "withdrawFunds",
      "outputs": [],
      "stateMutability": "nonpayable",
      "type": "function"
    },
    {
      "inputs": [],
      "name": "withdrawTokens",
      "outputs": [],
      "stateMutability": "nonpayable",
      "type": "function"
    }
  ],
  "bytecode": "0x60806040523480156200001157600080fd5b506040516200106838038062001068833981810160405281019062000037919062000180565b816000806101000a81548173ffffffffffffffffffffffffffffffffffffffff021916908373ffffffffffffffffffffffffffffffffffffffff16021790555033600260006101000a81548173ffffffffffffffffffffffffffffffffffffffff021916908373ffffffffffffffffffffffffffffffffffffffff160217905550806001819055505050620001c7565b600080fd5b600073ffffffffffffffffffffffffffffffffffffffff82169050919050565b6000620000f982620000cc565b9050919050565b60006200010d82620000ec565b9050919050565b6200011f8162000100565b81146200012b57600080fd5b50565b6000815190506200013f8162000114565b92915050565b6000819050919050565b6200015a8162000145565b81146200016657600080fd5b50565b6000815190506200017a816200014f565b92915050565b600080604083850312156200019a5762000199620000c7565b5b6000620001aa858286016200012e565b9250506020620001bd8582860162000169565b9150509250929050565b610e9180620001d76000396000f3fe6080604052600436106100705760003560e01c80638d8f2adb1161004e5780638d8f2adb146100ce578063b3fc0d7b146100e5578063d96a094a14610110578063e75722301461012c57610070565b806324600fc314610075578063457100741461008c57806382b2e257146100a3575b600080fd5b34801561008157600080fd5b5061008a610169565b005b34801561009857600080fd5b506100a1610272565b005b3480156100af57600080fd5b506100b86104cf565b6040516100c591906108d2565b60405180910390f35b3480156100da57600080fd5b506100e3610571565b005b3480156100f157600080fd5b506100fa610742565b604051610107919061096c565b60405180910390f35b61012a600480360381019061012591906109b8565b610766565b005b34801561013857600080fd5b50610153600480360381019061014e91906109b8565b6108a2565b60405161016091906108d2565b60405180910390f35b600260009054906101000a900473ffffffffffffffffffffffffffffffffffffffff1673ffffffffffffffffffffffffffffffffffffffff163373ffffffffffffffffffffffffffffffffffffffff16146101f9576040517f08c379a00000000000000000000000000000000000000000000000000000000081526004016101f090610a42565b60405180910390fd5b60003373ffffffffffffffffffffffffffffffffffffffff164760405161021f90610a93565b60006040518083038185875af1925050503d806000811461025c576040519150601f19603f3d011682016040523d82523d6000602084013e610261565b606091505b505090508061026f57600080fd5b50565b600260009054906101000a900473ffffffffffffffffffffffffffffffffffffffff1673ffffffffffffffffffffffffffffffffffffffff163373ffffffffffffffffffffffffffffffffffffffff1614610302576040517f08c379a00000000000000000000000000000000000000000000000000000000081526004016102f990610a42565b60405180910390fd5b60008060009054906101000a900473ffffffffffffffffffffffffffffffffffffffff1673ffffffffffffffffffffffffffffffffffffffff1663dd62ed3e33306040518363ffffffff1660e01b8152600401610360929190610ac9565b602060405180830381865afa15801561037d573d6000803e3d6000fd5b505050506040513d601f19601f820116820180604052508101906103a19190610b07565b9050600081116103e6576040517f08c379a00000000000000000000000000000000000000000000000000000000081526004016103dd90610ba6565b60405180910390fd5b60008060009054906101000a900473ffffffffffffffffffffffffffffffffffffffff1673ffffffffffffffffffffffffffffffffffffffff166323b872dd3330856040518463ffffffff1660e01b815260040161044693929190610bc6565b6020604051808303816000875af1158015610465573d6000803e3d6000fd5b505050506040513d601f19601f820116820180604052508101906104899190610c35565b9050806104cb576040517f08c379a00000000000000000000000000000000000000000000000000000000081526004016104c290610cae565b60405180910390fd5b5050565b60008060009054906101000a900473ffffffffffffffffffffffffffffffffffffffff1673ffffffffffffffffffffffffffffffffffffffff166370a08231306040518263ffffffff1660e01b815260040161052b9190610cce565b602060405180830381865afa158015610548573d6000803e3d6000fd5b505050506040513d601f19601f8201168201806040525081019061056c9190610b07565b905090565b600260009054906101000a900473ffffffffffffffffffffffffffffffffffffffff1673ffffffffffffffffffffffffffffffffffffffff163373ffffffffffffffffffffffffffffffffffffffff1614610601576040517f08c379a00000000000000000000000000000000000000000000000000000000081526004016105f890610a42565b60405180910390fd5b60008060009054906101000a900473ffffffffffffffffffffffffffffffffffffffff1673ffffffffffffffffffffffffffffffffffffffff166370a08231306040518263ffffffff1660e01b815260040161065d9190610cce565b602060405180830381865afa15801561067a573d6000803e3d6000fd5b505050506040513d601f19601f8201168201806040525081019061069e9190610b07565b905060008054906101000a900473ffffffffffffffffffffffffffffffffffffffff1673ffffffffffffffffffffffffffffffffffffffff1663a9059cbb33836040518363ffffffff1660e01b81526004016106fb929190610ce9565b6020604051808303816000875af115801561071a573d6000803e3d6000fd5b505050506040513d601f19601f8201168201806040525081019061073e9190610c35565b5050565b60008054906101000a900473ffffffffffffffffffffffffffffffffffffffff1681565b61076e6104cf565b8111156107b0576040517f08c379a00000000000000000000000000000000000000000000000000000000081526004016107a790610d5e565b60405180910390fd5b60006107bb826108a2565b90508034146107ff576040517f08c379a00000000000000000000000000000000000000000000000000000000081526004016107f690610dca565b60405180910390fd5b60008054906101000a900473ffffffffffffffffffffffffffffffffffffffff1673ffffffffffffffffffffffffffffffffffffffff1663a9059cbb33846040518363ffffffff1660e01b815260040161085a929190610ce9565b6020604051808303816000875af1158015610879573d6000803e3d6000fd5b505050506040513d601f19601f8201168201806040525081019061089d9190610c35565b505050565b6000600154826108b29190610e19565b9050919050565b6000819050919050565b6108cc816108b9565b82525050565b60006020820190506108e760008301846108c3565b92915050565b600073ffffffffffffffffffffffffffffffffffffffff82169050919050565b6000819050919050565b600061093261092d610928846108ed565b61090d565b6108ed565b9050919050565b600061094482610917565b9050919050565b600061095682610939565b9050919050565b6109668161094b565b82525050565b6000602082019050610981600083018461095d565b92915050565b600080fd5b610995816108b9565b81146109a057600080fd5b50565b6000813590506109b28161098c565b92915050565b6000602082840312156109ce576109cd610987565b5b60006109dc848285016109a3565b91505092915050565b600082825260208201905092915050565b7f796f7520617265206e6f7420746865206f776e65720000000000000000000000600082015250565b6000610a2c6015836109e5565b9150610a37826109f6565b602082019050919050565b60006020820190508181036000830152610a5b81610a1f565b9050919050565b600081905092915050565b50565b6000610a7d600083610a62565b9150610a8882610a6d565b600082019050919050565b6000610a9e82610a70565b9150819050919050565b6000610ab3826108ed565b9050919050565b610ac381610aa8565b82525050565b6000604082019050610ade6000830185610aba565b610aeb6020830184610aba565b9392505050565b600081519050610b018161098c565b92915050565b600060208284031215610b1d57610b1c610987565b5b6000610b2b84828501610af2565b91505092915050565b7f796f75206d75737420616c6c6f77207468697320636f6e74726163742061636360008201527f65737320746f206174206c65617374206f6e6520746f6b656e00000000000000602082015250565b6000610b906039836109e5565b9150610b9b82610b34565b604082019050919050565b60006020820190508181036000830152610bbf81610b83565b9050919050565b6000606082019050610bdb6000830186610aba565b610be86020830185610aba565b610bf560408301846108c3565b949350505050565b60008115159050919050565b610c1281610bfd565b8114610c1d57600080fd5b50565b600081519050610c2f81610c09565b92915050565b600060208284031215610c4b57610c4a610987565b5b6000610c5984828501610c20565b91505092915050565b7f6661696c656420746f2073656e64000000000000000000000000000000000000600082015250565b6000610c98600e836109e5565b9150610ca382610c62565b602082019050919050565b60006020820190508181036000830152610cc781610c8b565b9050919050565b6000602082019050610ce36000830184610aba565b92915050565b6000604082019050610cfe6000830185610aba565b610d0b60208301846108c3565b9392505050565b7f6e6f7420656e6f75676820746f6b656e73000000000000000000000000000000600082015250565b6000610d486011836109e5565b9150610d5382610d12565b602082019050919050565b60006020820190508181036000830152610d7781610d3b565b9050919050565b7f696e76616c69642076616c75652073656e740000000000000000000000000000600082015250565b6000610db46012836109e5565b9150610dbf82610d7e565b602082019050919050565b60006020820190508181036000830152610de381610da7565b9050919050565b7f4e487b7100000000000000000000000000000000000000000000000000000000600052601160045260246000fd5b6000610e24826108b9565b9150610e2f836108b9565b9250828202610e3d816108b9565b91508282048414831517610e5457610e53610dea565b5b509291505056fea264697066735822122085fa4865feaad1ccde24748fb293ae3cd6a67a55befcc497f648bdd4324fa2b964736f6c63430008110033",
  "linkReferences": {},
  "deployedLinkReferences": {}
}